:1000000019C033C032C031C030C02FC02EC02DC087
:100010002CC02BC02AC029C028C027C026C025C09C
:1000200024C023C022C021C020C01FC0F0C01DC0FA
:100030001CC01BC011241FBECFEFCDBFDFE3DEBF4E
:100040001EE3A0E0BEE3E7ECF5E002C005900D92F0
:10005000AC30B107D9F72EE3ACE0BEE301C01D928E
:10006000AF36B207E1F7F6D076C2CACF8093240844
:100070008091230887FFFCCF809124080895FF9288
:100080000F931F93CF93DF93F62E072F142F8032F9
:1000900008F4805E2898EADFCF2DD02F115018F099
:1000A0008991E4DFFBCF289ADF91CF911F910F91C7
:1000B000FF9008952898DADF80E0D8DF289A089525
:1000C000CF93C62F2898805ED1DF8C2FCFDF289A60
:1000D000CF91089529986FE080E0F2DF299A089582
:1000E0002898C4DF289A0895299845E060E07EE3C7
:1000F0008BE0C5DF45E065E07EE380E1C0DF45E001
:1001000065E07EE38AE0BBDF60910A3E85E0D8DFF0
:10011000E0914C3EF0E0E65AFA47608186E0D0DF9D
:1001200064E08DE1CDDF6FE38CE1CADF82EED8DFE2
:10013000D1CF982F80ED890F8A3070F08FE9890F29
:10014000863018F489EA890F08958FEB890F86307D
:1001500010F489ECF8CF80E008950F931F93CF93AC
:100160008C01FC018081E5DFC82FF8018181E1DF8E
:10017000C295C07F8C0FCF911F910F9108959091E0
:10018000040895FFFCCF8093020808958A3010F48C
:10019000805DF5CF895CFDCF0F931F93CF93DF93E5
:1001A0008C01C6E0C15059F0F801D1918F018D2F1B
:1001B00082958F70EBDF8D2F8F70E8DFF3CFDF91AB
:1001C000CF911F910F910895CF93DF93EC01899107
:1001D000882311F0D4DFFBCFDF91CF910895609198
:1001E0000A3E82E090E07BD160914C3E83E090E05B
:1001F00076D145E050E064E070E085E09EE360D1B8
:1002000045E050E069E070E080E09EE359C11F9254
:100210000F920FB60F9211248F939F93EF93FF933A
:1002200080916E3E8F7380936E3E80910008E091C6
:100230006E3E91E09E0F90936E3EF0E0E45FF14CD5
:100240008083FF91EF919F918F910F900FBE0F9040
:100250001F90189588ED91E084BF90936100079AF4
:1002600090E080E029D18C36994A09F055C082E0AF
:1002700090E01AD180930A3E83E090E015D18093FC
:100280004C3E45E050E064E070E085E09EE309D13B
:1002900045E050E069E070E080E09EE302D1289AFA
:1002A000219A209A019A039A81E38093200884E09E
:1002B00080932108229AA09125110A2E000CBB0BD5
:1002C000BC5F2BE531E035D12AE095958795779590
:1002D00067952A95D1F7609308087093090880E81C
:1002E0008093050882EC80930608FEDE7894C0E0D7
:1002F00032E0F32E87E0DEDE86FF15C00F9A80E63F
:10030000D9DE182F289881E6B1DE115008F479C0A3
:1003100080E0ACDE34DFF9CF6CE679EA90E080E093
:10032000E7D05DDFBCCF87E1C5DE80FFE7CF8091FE
:100330006E3EE0916D3E8E1709F461C080916E3E75
:10034000E817E1F3EF7381E08E0F80936D3EF0E0EC
:10035000E45FF14C808111E01C0FEC2FF0E0E35BD7
:10036000F14C8083103221F0C12F8A3009F047C050
:1003700080914D3E813209F07EC080914E3E8237A1
:1003800009F45FC008F042C0833609F453C0ACDE04
:1003900083E695E819DF8AE0F2DE8CE795E814DF62
:1003A000C0910A3E8C2F82958F70F0DE8C2F8F705B
:1003B000EDDE8AE0E4DE8BE895E806DF85E09EE38B
:1003C000EBDE8AE0DCDE8AE995E8FEDE80E09EE393
:1003D000E3DE8AE0D4DE89EA95E8F6DEE0914C3E81
:1003E000F0E0EE0FFF1FE35AFA4780819181ECDEC7
:1003F00088EB95E8E9DE8AE0C2DEF1DEC0E00F9826
:1004000079CF289A60E487E05BDE91CF833741F1B2
:10041000C5E0DEE310E000E0843709F0B8CFC801A2
:10042000815B914C9ADE89930E5F1F4F0A30110554
:10043000B1F7ADCF8FE49EE390DE8F7780930A3ED5
:10044000A6CFC0E0DEE310E000E0C801815B914C84
:1004500084DE89930E5F1F4F0A301105B1F797CFE5
:100460008FE49EE37ADE833018F480934C3E8FCF86
:10047000F0924C3E8CCF0F9A60E387E021DE81EE54
:100480002FDE29986EE080E01BDE299A412F6DE473
:100490007EE380EAF4DD87E00DDE8073E1F31ADEAF
:1004A000ADCF60507C4E3CC003D080819927089529
:1004B000FC01E050FC4E0895FBDF8081918108959E
:1004C000DC01A40FB51F4150504040F0CB01840F18
:1004D000951F2E9105D041505040D8F70895262FF2
:1004E000E7DF0080021611F008D001970197089508
:1004F0000196272FF5DFF3CF262FAF93BF93E0E0D0
:10050000F0E1328131FDFDCFDC01A050BC4E2C93D7
:100510002DE924BF23E020830196BF91AF91089578
:10052000FB01DC0102C001900D9241505040D8F710
:10053000089505D0B7FF0895821B930B0895A29FDD
:10054000B001B39FC001A39F01D0B29F700D811D68
:0A0550001124911D0895F894FFCFC7
:10055A0026060EBC85C185C48523204E52463255D7
:10056A00534220436F6E66696775726174696F6E74
:10057A003A0023205246206368616E6E656C3A2009
:10058A00002320545820616464726573733A200012
:10059A002320525820616464726573733A200023E1
:1005AA00204461746120726174653A20200062708F
:0D05BA0073003235306B00314D00324D00C2
:0C05C700C2C2C2C2C2E7E7E7E7E70200D9
:00000001FF
